{
    "contractName": "SupplyChainStorage",
    "abi": [
        {
            "inputs": [],
            "stateMutability": "nonpayable",
            "type": "constructor"
        },
        {
            "anonymous": false,
            "inputs": [
                {
                    "indexed": true,
                    "internalType": "address",
                    "name": "user",
                    "type": "address"
                },
                {
                    "indexed": true,
                    "internalType": "address",
                    "name": "batchNo",
                    "type": "address"
                }
            ],
            "name": "AddedBasicDetails",
            "type": "event"
        },
        {
            "anonymous": false,
            "inputs": [
                {
                    "indexed": false,
                    "internalType": "address",
                    "name": "caller",
                    "type": "address"
                }
            ],
            "name": "AuthorizedCaller",
            "type": "event"
        },
        {
            "anonymous": false,
            "inputs": [
                {
                    "indexed": false,
                    "internalType": "address",
                    "name": "caller",
                    "type": "address"
                }
            ],
            "name": "DeAuthorizedCaller",
            "type": "event"
        },
        {
            "anonymous": false,
            "inputs": [
                {
                    "indexed": true,
                    "internalType": "address",
                    "name": "user",
                    "type": "address"
                },
                {
                    "indexed": true,
                    "internalType": "address",
                    "name": "batchNo",
                    "type": "address"
                }
            ],
            "name": "Done3DPrintingCompany",
            "type": "event"
        },
        {
            "anonymous": false,
            "inputs": [
                {
                    "indexed": true,
                    "internalType": "address",
                    "name": "user",
                    "type": "address"
                },
                {
                    "indexed": true,
                    "internalType": "address",
                    "name": "batchNo",
                    "type": "address"
                }
            ],
            "name": "DoneChemicalProcessor",
            "type": "event"
        },
        {
            "anonymous": false,
            "inputs": [
                {
                    "indexed": true,
                    "internalType": "address",
                    "name": "user",
                    "type": "address"
                },
                {
                    "indexed": true,
                    "internalType": "address",
                    "name": "batchNo",
                    "type": "address"
                }
            ],
            "name": "DoneFilamentProducer",
            "type": "event"
        },
        {
            "anonymous": false,
            "inputs": [
                {
                    "indexed": true,
                    "internalType": "address",
                    "name": "user",
                    "type": "address"
                },
                {
                    "indexed": true,
                    "internalType": "address",
                    "name": "batchNo",
                    "type": "address"
                }
            ],
            "name": "DonePolymerizationCompany",
            "type": "event"
        },
        {
            "anonymous": false,
            "inputs": [
                {
                    "indexed": true,
                    "internalType": "address",
                    "name": "user",
                    "type": "address"
                },
                {
                    "indexed": true,
                    "internalType": "address",
                    "name": "batchNo",
                    "type": "address"
                }
            ],
            "name": "DoneRawMaterialExtractor",
            "type": "event"
        },
        {
            "anonymous": false,
            "inputs": [
                {
                    "indexed": true,
                    "internalType": "address",
                    "name": "user",
                    "type": "address"
                },
                {
                    "indexed": true,
                    "internalType": "address",
                    "name": "batchNo",
                    "type": "address"
                }
            ],
            "name": "DoneRecycleCompany",
            "type": "event"
        },
        {
            "anonymous": false,
            "inputs": [
                {
                    "indexed": true,
                    "internalType": "address",
                    "name": "previousOwner",
                    "type": "address"
                }
            ],
            "name": "OwnershipRenounced",
            "type": "event"
        },
        {
            "anonymous": false,
            "inputs": [
                {
                    "indexed": true,
                    "internalType": "address",
                    "name": "previousOwner",
                    "type": "address"
                },
                {
                    "indexed": true,
                    "internalType": "address",
                    "name": "newOwner",
                    "type": "address"
                }
            ],
            "name": "OwnershipTransferred",
            "type": "event"
        },
        {
            "inputs": [
                {
                    "internalType": "address",
                    "name": "_caller",
                    "type": "address"
                }
            ],
            "name": "authorizeCaller",
            "outputs": [
                {
                    "internalType": "bool",
                    "name": "",
                    "type": "bool"
                }
            ],
            "stateMutability": "nonpayable",
            "type": "function"
        },
        {
            "inputs": [
                {
                    "internalType": "address",
                    "name": "_caller",
                    "type": "address"
                }
            ],
            "name": "deAuthorizeCaller",
            "outputs": [
                {
                    "internalType": "bool",
                    "name": "",
                    "type": "bool"
                }
            ],
            "stateMutability": "nonpayable",
            "type": "function"
        },
        {
            "inputs": [
                {
                    "internalType": "address",
                    "name": "batchNo",
                    "type": "address"
                }
            ],
            "name": "get3DPrintingCompanyData",
            "outputs": [
                {
                    "internalType": "uint256",
                    "name": "_printime",
                    "type": "uint256"
                },
                {
                    "internalType": "uint256",
                    "name": "_energyUsed",
                    "type": "uint256"
                },
                {
                    "internalType": "uint256",
                    "name": "_carbonEmission",
                    "type": "uint256"
                },
                {
                    "internalType": "uint256",
                    "name": "_partWeight",
                    "type": "uint256"
                },
                {
                    "internalType": "uint256",
                    "name": "_scrapWeight",
                    "type": "uint256"
                },
                {
                    "internalType": "uint256",
                    "name": "_amountDisposed",
                    "type": "uint256"
                }
            ],
            "stateMutability": "view",
            "type": "function"
        },
        {
            "inputs": [
                {
                    "internalType": "address",
                    "name": "_batchNo",
                    "type": "address"
                }
            ],
            "name": "getBasicDetails",
            "outputs": [
                {
                    "internalType": "string",
                    "name": "registrationNo",
                    "type": "string"
                },
                {
                    "internalType": "string",
                    "name": "companyName",
                    "type": "string"
                },
                {
                    "internalType": "string",
                    "name": "companyAddress",
                    "type": "string"
                }
            ],
            "stateMutability": "view",
            "type": "function"
        },
        {
            "inputs": [
                {
                    "internalType": "address",
                    "name": "batchNo",
                    "type": "address"
                }
            ],
            "name": "getChemicalProcessorData",
            "outputs": [
                {
                    "internalType": "string",
                    "name": "refinedComponent",
                    "type": "string"
                },
                {
                    "internalType": "uint256",
                    "name": "refinedOutput",
                    "type": "uint256"
                },
                {
                    "internalType": "uint256",
                    "name": "carbonEmission",
                    "type": "uint256"
                },
                {
                    "internalType": "uint256",
                    "name": "amountDisposed",
                    "type": "uint256"
                }
            ],
            "stateMutability": "view",
            "type": "function"
        },
        {
            "inputs": [
                {
                    "internalType": "address",
                    "name": "batchNo",
                    "type": "address"
                }
            ],
            "name": "getFilamentProducerData",
            "outputs": [
                {
                    "internalType": "string",
                    "name": "companyAddress",
                    "type": "string"
                },
                {
                    "internalType": "string",
                    "name": "componentName",
                    "type": "string"
                },
                {
                    "internalType": "string",
                    "name": "filamentType",
                    "type": "string"
                },
                {
                    "internalType": "uint256",
                    "name": "filamentOutput",
                    "type": "uint256"
                },
                {
                    "internalType": "uint256",
                    "name": "recycledMaterialsUsed",
                    "type": "uint256"
                },
                {
                    "internalType": "uint256",
                    "name": "carbonEmission",
                    "type": "uint256"
                },
                {
                    "internalType": "uint256",
                    "name": "amountDisposed",
                    "type": "uint256"
                }
            ],
            "stateMutability": "view",
            "type": "function"
        },
        {
            "inputs": [],
            "name": "getLastHandledBatch",
            "outputs": [
                {
                    "internalType": "address",
                    "name": "",
                    "type": "address"
                }
            ],
            "stateMutability": "view",
            "type": "function"
        },
        {
            "inputs": [
                {
                    "internalType": "address",
                    "name": "_batchNo",
                    "type": "address"
                }
            ],
            "name": "getNextAction",
            "outputs": [
                {
                    "internalType": "string",
                    "name": "",
                    "type": "string"
                }
            ],
            "stateMutability": "view",
            "type": "function"
        },
        {
            "inputs": [
                {
                    "internalType": "address",
                    "name": "batchNo",
                    "type": "address"
                }
            ],
            "name": "getPolymerizationCompanyData",
            "outputs": [
                {
                    "internalType": "string",
                    "name": "companyName",
                    "type": "string"
                },
                {
                    "internalType": "string",
                    "name": "companyAddress",
                    "type": "string"
                },
                {
                    "internalType": "string",
                    "name": "componentName",
                    "type": "string"
                },
                {
                    "internalType": "uint256",
                    "name": "componentOutput",
                    "type": "uint256"
                },
                {
                    "internalType": "uint256",
                    "name": "recycledMaterialsUsed",
                    "type": "uint256"
                },
                {
                    "internalType": "uint256",
                    "name": "carbonEmission",
                    "type": "uint256"
                },
                {
                    "internalType": "uint256",
                    "name": "amountDisposed",
                    "type": "uint256"
                }
            ],
            "stateMutability": "view",
            "type": "function"
        },
        {
            "inputs": [
                {
                    "internalType": "address",
                    "name": "batchNo",
                    "type": "address"
                }
            ],
            "name": "getRawMaterialExtractorData",
            "outputs": [
                {
                    "internalType": "string",
                    "name": "rawMaterialName",
                    "type": "string"
                },
                {
                    "internalType": "uint256",
                    "name": "rawMaterialWeight",
                    "type": "uint256"
                },
                {
                    "internalType": "uint256",
                    "name": "carbonEmission",
                    "type": "uint256"
                }
            ],
            "stateMutability": "view",
            "type": "function"
        },
        {
            "inputs": [
                {
                    "internalType": "address",
                    "name": "batchNo",
                    "type": "address"
                }
            ],
            "name": "getRecycleCompanyData",
            "outputs": [
                {
                    "internalType": "uint256",
                    "name": "amountDisposed",
                    "type": "uint256"
                }
            ],
            "stateMutability": "view",
            "type": "function"
        },
        {
            "inputs": [
                {
                    "internalType": "address",
                    "name": "_userAddress",
                    "type": "address"
                }
            ],
            "name": "getUser",
            "outputs": [
                {
                    "internalType": "string",
                    "name": "name",
                    "type": "string"
                },
                {
                    "internalType": "string",
                    "name": "contactNo",
                    "type": "string"
                },
                {
                    "internalType": "string",
                    "name": "role",
                    "type": "string"
                },
                {
                    "internalType": "bool",
                    "name": "isActive",
                    "type": "bool"
                },
                {
                    "internalType": "string",
                    "name": "profileHash",
                    "type": "string"
                }
            ],
            "stateMutability": "view",
            "type": "function"
        },
        {
            "inputs": [
                {
                    "internalType": "address",
                    "name": "_userAddress",
                    "type": "address"
                }
            ],
            "name": "getUserRole",
            "outputs": [
                {
                    "internalType": "string",
                    "name": "",
                    "type": "string"
                }
            ],
            "stateMutability": "view",
            "type": "function"
        },
        {
            "inputs": [],
            "name": "owner",
            "outputs": [
                {
                    "internalType": "address",
                    "name": "",
                    "type": "address"
                }
            ],
            "stateMutability": "view",
            "type": "function"
        },
        {
            "inputs": [],
            "name": "renounceOwnership",
            "outputs": [],
            "stateMutability": "nonpayable",
            "type": "function"
        },
        {
            "inputs": [
                {
                    "internalType": "address",
                    "name": "batchNo",
                    "type": "address"
                },
                {
                    "internalType": "uint256",
                    "name": "_printime",
                    "type": "uint256"
                },
                {
                    "internalType": "uint256",
                    "name": "_energyUsed",
                    "type": "uint256"
                },
                {
                    "internalType": "uint256",
                    "name": "_carbonEmission",
                    "type": "uint256"
                },
                {
                    "internalType": "uint256",
                    "name": "_partWeight",
                    "type": "uint256"
                },
                {
                    "internalType": "uint256",
                    "name": "_scrapWeight",
                    "type": "uint256"
                },
                {
                    "internalType": "uint256",
                    "name": "_amountDisposed",
                    "type": "uint256"
                }
            ],
            "name": "set3DPrintingCompanyData",
            "outputs": [],
            "stateMutability": "nonpayable",
            "type": "function"
        },
        {
            "inputs": [
                {
                    "internalType": "string",
                    "name": "_registrationNo",
                    "type": "string"
                },
                {
                    "internalType": "string",
                    "name": "_companyName",
                    "type": "string"
                },
                {
                    "internalType": "string",
                    "name": "_companyAddress",
                    "type": "string"
                }
            ],
            "name": "setBasicDetails",
            "outputs": [
                {
                    "internalType": "bool",
                    "name": "",
                    "type": "bool"
                }
            ],
            "stateMutability": "nonpayable",
            "type": "function"
        },
        {
            "inputs": [
                {
                    "internalType": "address",
                    "name": "batchNo",
                    "type": "address"
                },
                {
                    "internalType": "string",
                    "name": "_refinedComponent",
                    "type": "string"
                },
                {
                    "internalType": "uint256",
                    "name": "_refinedOutput",
                    "type": "uint256"
                },
                {
                    "internalType": "uint256",
                    "name": "_carbonEmission",
                    "type": "uint256"
                },
                {
                    "internalType": "uint256",
                    "name": "amountDisposed",
                    "type": "uint256"
                }
            ],
            "name": "setChemicalProcessorData",
            "outputs": [
                {
                    "internalType": "bool",
                    "name": "",
                    "type": "bool"
                }
            ],
            "stateMutability": "nonpayable",
            "type": "function"
        },
        {
            "inputs": [
                {
                    "internalType": "address",
                    "name": "batchNo",
                    "type": "address"
                },
                {
                    "internalType": "string",
                    "name": "_companyAddress",
                    "type": "string"
                },
                {
                    "internalType": "string",
                    "name": "_componentName",
                    "type": "string"
                },
                {
                    "internalType": "string",
                    "name": "_filamentType",
                    "type": "string"
                },
                {
                    "internalType": "uint256",
                    "name": "_filamentOutput",
                    "type": "uint256"
                },
                {
                    "internalType": "uint256",
                    "name": "_recycledMaterialsUsed",
                    "type": "uint256"
                },
                {
                    "internalType": "uint256",
                    "name": "_carbonEmission",
                    "type": "uint256"
                },
                {
                    "internalType": "uint256",
                    "name": "_amountDisposed",
                    "type": "uint256"
                }
            ],
            "name": "setFilamentProducerData",
            "outputs": [
                {
                    "internalType": "bool",
                    "name": "",
                    "type": "bool"
                }
            ],
            "stateMutability": "nonpayable",
            "type": "function"
        },
        {
            "inputs": [
                {
                    "internalType": "address",
                    "name": "batchNo",
                    "type": "address"
                },
                {
                    "internalType": "string",
                    "name": "_companyName",
                    "type": "string"
                },
                {
                    "internalType": "string",
                    "name": "_companyAddress",
                    "type": "string"
                },
                {
                    "internalType": "string",
                    "name": "_componentName",
                    "type": "string"
                },
                {
                    "internalType": "uint256",
                    "name": "_componentOutput",
                    "type": "uint256"
                },
                {
                    "internalType": "uint256",
                    "name": "_recycledMaterialsUsed",
                    "type": "uint256"
                },
                {
                    "internalType": "uint256",
                    "name": "_carbonEmission",
                    "type": "uint256"
                },
                {
                    "internalType": "uint256",
                    "name": "_amountDisposed",
                    "type": "uint256"
                }
            ],
            "name": "setPolymerizationCompanyData",
            "outputs": [
                {
                    "internalType": "bool",
                    "name": "",
                    "type": "bool"
                }
            ],
            "stateMutability": "nonpayable",
            "type": "function"
        },
        {
            "inputs": [
                {
                    "internalType": "address",
                    "name": "batchNo",
                    "type": "address"
                },
                {
                    "internalType": "string",
                    "name": "_rawMaterialName",
                    "type": "string"
                },
                {
                    "internalType": "uint256",
                    "name": "_rawMaterialWeight",
                    "type": "uint256"
                },
                {
                    "internalType": "uint256",
                    "name": "_carbonEmission",
                    "type": "uint256"
                },
                {
                    "internalType": "uint256",
                    "name": "_workerAge",
                    "type": "uint256"
                }
            ],
            "name": "setRawMaterialExtractorData",
            "outputs": [
                {
                    "internalType": "bool",
                    "name": "",
                    "type": "bool"
                }
            ],
            "stateMutability": "nonpayable",
            "type": "function"
        },
        {
            "inputs": [
                {
                    "internalType": "address",
                    "name": "batchNo",
                    "type": "address"
                },
                {
                    "internalType": "uint256",
                    "name": "_amountDisposed",
                    "type": "uint256"
                }
            ],
            "name": "setRecycleCompanyData",
            "outputs": [
                {
                    "internalType": "bool",
                    "name": "",
                    "type": "bool"
                }
            ],
            "stateMutability": "nonpayable",
            "type": "function"
        },
        {
            "inputs": [
                {
                    "internalType": "address",
                    "name": "_userAddress",
                    "type": "address"
                },
                {
                    "internalType": "string",
                    "name": "_name",
                    "type": "string"
                },
                {
                    "internalType": "string",
                    "name": "_contactNo",
                    "type": "string"
                },
                {
                    "internalType": "string",
                    "name": "_role",
                    "type": "string"
                },
                {
                    "internalType": "bool",
                    "name": "_isActive",
                    "type": "bool"
                },
                {
                    "internalType": "string",
                    "name": "_profileHash",
                    "type": "string"
                }
            ],
            "name": "setUser",
            "outputs": [
                {
                    "internalType": "bool",
                    "name": "",
                    "type": "bool"
                }
            ],
            "stateMutability": "nonpayable",
            "type": "function"
        },
        {
            "inputs": [
                {
                    "internalType": "address",
                    "name": "newOwner",
                    "type": "address"
                }
            ],
            "name": "transferOwnership",
            "outputs": [],
            "stateMutability": "nonpayable",
            "type": "function"
        }
    ],
    "bytecode": "608060405234801561001057600080fd5b50600080546001600160a01b03191633908117825580825260016020818152604093849020805460ff191690921790915591519081527f8afeca650897be3183b7c0d24eba96a1b990f75c4bd74a0cfb2c0a71aec48e61910160405180910390a1612502806100806000396000f3fe608060405234801561001057600080fd5b50600436106101585760003560e01c80638da5cb5b116100c3578063cc117f781161007c578063cc117f781461035f578063d1720c5114610372578063d97a81d914610385578063f2997d76146103a6578063f2fde38b146103c8578063fb7a20af146103db57600080fd5b80638da5cb5b146102de57806391a1288e146102f1578063a7b2f57e14610304578063ad0e525614610326578063b67a96ce14610339578063c0eefecb1461034c57600080fd5b80632c388d5d116101155780632c388d5d146102375780634d6b5e001461024a5780634f3f30841461025d5780634f7bbb9e146102805780636f77926b146102b2578063715018a6146102d657600080fd5b806305ed3c4e1461015d5780631bcd250a1461018c5780631e631fb4146101af5780632570da1c146101c257806327820851146102025780632bf7a7a914610222575b600080fd5b61017061016b366004611f0d565b6103ee565b6040516101839796959493929190611f7c565b60405180910390f35b61019f61019a366004611f0d565b610656565b6040519015158152602001610183565b61019f6101bd36600461207f565b6106cc565b6101d56101d0366004611f0d565b6107ee565b604080519687526020870195909552938501929092526060840152608083015260a082015260c001610183565b610215610210366004611f0d565b61088b565b60405161018391906120e8565b6102356102303660046120fb565b610952565b005b61019f610245366004611f0d565b610a29565b610215610258366004611f0d565b610a96565b61027061026b366004611f0d565b610ad8565b604051610183949392919061214e565b336000908152600260205260409020546001600160a01b03165b6040516001600160a01b039091168152602001610183565b6102c56102c0366004611f0d565b610bf3565b60405161018395949392919061217d565b610235610ede565b60005461029a906001600160a01b031681565b61019f6102ff3660046121de565b610f3d565b610317610312366004611f0d565b6110db565b6040516101839392919061229b565b610170610334366004611f0d565b611201565b61019f6103473660046121de565b611469565b61019f61035a3660046122c0565b611605565b61019f61036d3660046122ea565b6116b4565b61019f61038036600461207f565b611889565b610398610393366004611f0d565b6119cb565b604051908152602001610183565b6103b96103b4366004611f0d565b611a14565b60405161018393929190612372565b6102356103d6366004611f0d565b611c2a565b61019f6103e93660046123c5565b611caf565b33600090815260016020526040812054606091829182919081908190819060ff1661041857600080fd5b6001600160a01b038816600090815260096020526040808220815160e0810190925280548290829061044990612492565b80601f016020809104026020016040519081016040528092919081815260200182805461047590612492565b80156104c25780601f10610497576101008083540402835291602001916104c2565b820191906000526020600020905b8154815290600101906020018083116104a557829003601f168201915b505050505081526020016001820180546104db90612492565b80601f016020809104026020016040519081016040528092919081815260200182805461050790612492565b80156105545780601f1061052957610100808354040283529160200191610554565b820191906000526020600020905b81548152906001019060200180831161053757829003601f168201915b5050505050815260200160028201805461056d90612492565b80601f016020809104026020016040519081016040528092919081815260200182805461059990612492565b80156105e65780601f106105bb576101008083540402835291602001916105e6565b820191906000526020600020905b8154815290600101906020018083116105c957829003601f168201915b505050505081526020016003820154815260200160048201548152602001600582015481526020016006820154815250509050806000015181602001518260400151836060015184608001518560a001518660c00151975097509750975097509750975050919395979092949650565b600080546001600160a01b0316331461066e57600080fd5b6001600160a01b038216600081815260016020908152604091829020805460ff1916905590519182527f9e8ca6ff03906e81e8a6a03d4f96b7edb0b97f0ed9d07ef1b699fff63438549691015b60405180910390a15060015b919050565b3360009081526001602052604081205460ff166106e857600080fd5b84516106fb906019906020880190611de2565b50601a849055601b839055601c8290556001600160a01b0386166000908152600760205260409020601980549091908190839061073790612492565b610742929190611e66565b506001828101549082015560028083015490820155600391820154910155604080518082018252600e81526d2827a62ca6a2a924ad20aa24a7a760911b60208083019182526001600160a01b038a166000908152600c9091529290922090516107ab9290611de2565b506040516001600160a01b0387169033907fb89aba6714912171d15cd744d21198452394034aa0cda976e8fde244d15a1f0890600090a350600195945050505050565b336000908152600160205260408120548190819081908190819060ff1661081457600080fd5b505050506001600160a01b03929092166000908152600a6020908152604091829020825160c08101845281548082526001830154938201849052600283015494820185905260038301546060830181905260048401546080840181905260059094015460a090930183905290979396509394509091565b3360009081526001602052604090205460609060ff166108aa57600080fd5b6001600160a01b038216600090815260046020526040902080546108cd90612492565b80601f01602080910402602001604051908101604052809291908181526020018280546108f990612492565b80156109465780601f1061091b57610100808354040283529160200191610946565b820191906000526020600020905b81548152906001019060200180831161092957829003601f168201915b50505050509050919050565b602b869055602c858155602d858155602e858155602f85815560308581556001600160a01b038c166000818152600a602090815260408083208f8155985460018a0155965460028901559454600388015592546004870155905460059095019490945582518084018452600781526652454359434c4560c81b818401908152948252600c9092529190912090516109e99290611de2565b506040516001600160a01b0388169033907f868a54b84b761adac1a855ab18e1b83fd660a49303d66e1bda5c4afe5d58547690600090a350505050505050565b600080546001600160a01b03163314610a4157600080fd5b6001600160a01b038216600081815260016020818152604092839020805460ff191690921790915590519182527f8afeca650897be3183b7c0d24eba96a1b990f75c4bd74a0cfb2c0a71aec48e6191016106bb565b3360009081526001602052604090205460609060ff16610ab557600080fd5b6001600160a01b0382166000908152600c6020526040902080546108cd90612492565b33600090815260016020526040812054606091908190819060ff16610afc57600080fd5b6001600160a01b038516600090815260076020526040808220815160808101909252805482908290610b2d90612492565b80601f0160208091040260200160405190810160405280929190818152602001828054610b5990612492565b8015610ba65780601f10610b7b57610100808354040283529160200191610ba6565b820191906000526020600020905b815481529060010190602001808311610b8957829003601f168201915b505050505081526020016001820154815260200160028201548152602001600382015481525050905080600001518160200151826040015183606001519450945094509450509193509193565b336000908152600160205260408120546060918291829190829060ff16610c1957600080fd5b6001600160a01b038616600090815260036020526040808220815160808101909252805482908290610c4a90612492565b80601f0160208091040260200160405190810160405280929190818152602001828054610c7690612492565b8015610cc35780601f10610c9857610100808354040283529160200191610cc3565b820191906000526020600020905b815481529060010190602001808311610ca657829003601f168201915b50505050508152602001600182018054610cdc90612492565b80601f0160208091040260200160405190810160405280929190818152602001828054610d0890612492565b8015610d555780601f10610d2a57610100808354040283529160200191610d55565b820191906000526020600020905b815481529060010190602001808311610d3857829003601f168201915b5050509183525050600282015460ff1615156020820152600382018054604090920191610d8190612492565b80601f0160208091040260200160405190810160405280929190818152602001828054610dad90612492565b8015610dfa5780601f10610dcf57610100808354040283529160200191610dfa565b820191906000526020600020905b815481529060010190602001808311610ddd57829003601f168201915b505050505081525050905080600001518160200151600460008a6001600160a01b03166001600160a01b0316815260200190815260200160002083604001518460600151828054610e4a90612492565b80601f0160208091040260200160405190810160405280929190818152602001828054610e7690612492565b8015610ec35780601f10610e9857610100808354040283529160200191610ec3565b820191906000526020600020905b815481529060010190602001808311610ea657829003601f168201915b50505050509250955095509550955095505091939590929450565b6000546001600160a01b03163314610ef557600080fd5b600080546040516001600160a01b03909116917ff8df31144d9c2f0f6b59d69b8b98abd5459d07f2742c4df920b25aae33c6482091a2600080546001600160a01b0319169055565b3360009081526001602052604081205460ff16610f5957600080fd5b8751610f6c90601d9060208b0190611de2565b508651610f8090601e9060208a0190611de2565b508551610f9490601f906020890190611de2565b5060208581556021859055602384905560228390556001600160a01b038a166000908152600890915260409020601d805490919081908390610fd590612492565b610fe0929190611e66565b506001820181600101908054610ff590612492565b611000929190611e66565b50600282018160020190805461101590612492565b611020929190611e66565b50600382810154908201556004808301549082015560058083015490820155600691820154910155604080518082018252601081526f2324a620a6a2a72a282927a22aa1a2a960811b60208083019182526001600160a01b038d166000908152600c9091529290922090516110959290611de2565b506040516001600160a01b038a169033907f58bf6567a83fea3e9dad4d11c3f4384dda5c280c64efce90837a277bc89161cc90600090a350600198975050505050505050565b3360009081526001602052604081205460609190819060ff166110fd57600080fd5b6001600160a01b038416600090815260066020526040808220815160a0810190925280548290829061112e90612492565b80601f016020809104026020016040519081016040528092919081815260200182805461115a90612492565b80156111a75780601f1061117c576101008083540402835291602001916111a7565b820191906000526020600020905b81548152906001019060200180831161118a57829003601f168201915b5050509183525050600182015460208083019190915260028301546040808401919091526003840154606084015260049093015460ff16151560809092019190915282519083015192909101519097919650945092505050565b33600090815260016020526040812054606091829182919081908190819060ff1661122b57600080fd5b6001600160a01b038816600090815260086020526040808220815160e0810190925280548290829061125c90612492565b80601f016020809104026020016040519081016040528092919081815260200182805461128890612492565b80156112d55780601f106112aa576101008083540402835291602001916112d5565b820191906000526020600020905b8154815290600101906020018083116112b857829003601f168201915b505050505081526020016001820180546112ee90612492565b80601f016020809104026020016040519081016040528092919081815260200182805461131a90612492565b80156113675780601f1061133c57610100808354040283529160200191611367565b820191906000526020600020905b81548152906001019060200180831161134a57829003601f168201915b5050505050815260200160028201805461138090612492565b80601f01602080910402602001604051908101604052809291908181526020018280546113ac90612492565b80156113f95780601f106113ce576101008083540402835291602001916113f9565b820191906000526020600020905b8154815290600101906020018083116113dc57829003601f168201915b505050505081526020016003820154815260200160048201548152602001600582015481526020016006820154815250509050806000015181602001518260400151836060015184608001518560c001518660a00151975097509750975097509750975050919395979092949650565b3360009081526001602052604081205460ff1661148557600080fd5b87516114989060249060208b0190611de2565b5086516114ac9060259060208a0190611de2565b50602785905585516114c5906026906020890190611de2565b5060288490556029839055602a8290556001600160a01b0389166000908152600960205260409020602480549091908190839061150190612492565b61150c929190611e66565b50600182018160010190805461152190612492565b61152c929190611e66565b50600282018160020190805461154190612492565b61154c929190611e66565b50600382810154908201556004808301549082015560058083015490820155600691820154910155604080518082018252600e81526d5448524545445052494e54494e4760901b60208083019182526001600160a01b038d166000908152600c9091529290922090516115bf9290611de2565b506040516001600160a01b038a169033907f5f28ad2912c60dfb76d4efe1db9cc15e27a2b6672b1464bcf2250e05093c95cb90600090a350600198975050505050505050565b3360009081526001602052604081205460ff1661162157600080fd5b60318290556001600160a01b0383166000818152600b60209081526040808320869055805180820182526004815263444f4e4560e01b818401908152948452600c90925290912090516116749290611de2565b506040516001600160a01b0384169033907fdd159258da49e563e58f5ef8a9b9c094c223cdb2069fc69a284fe5f212d3da3c90600090a350600192915050565b3360009081526001602052604081205460ff166116d057600080fd5b6040516bffffffffffffffffffffffff193360601b16602082015242603482015260009060540160408051601f19818403018152919052805160209182012086519092506117249160119190880190611de2565b508351611738906012906020870190611de2565b50825161174c906013906020860190611de2565b506001600160a01b0381166000908152600560205260409020601180549091908190839061177990612492565b611784929190611e66565b50600182018160010190805461179990612492565b6117a4929190611e66565b5060028201816002019080546117b990612492565b6117c4929190611e66565b505060408051808201825260158152742920aba6a0aa22a924a0a622ac2a2920a1aa24a7a760591b60208083019182526001600160a01b0386166000908152600c90915292909220905161181b9350909190611de2565b506040516001600160a01b0382169033907f97f92301b60cfa47e0035ceb7122be7b5c7a80aed85c853ff69b8a15e5a8de6090600090a333600090815260026020526040902080546001600160a01b0319166001600160a01b03929092169190911790555060019392505050565b3360009081526001602052604081205460ff166118a557600080fd5b84516118b8906014906020880190611de2565b506015849055601683905560178290556001600160a01b038616600090815260066020526040902060148054909190819083906118f490612492565b6118ff929190611e66565b506001828101549082015560028083015490820155600380830154908201556004918201549101805460ff191660ff909216151591909117905560408051808201825260128152714348454d4943414c50524f43455353494e4760701b60208083019182526001600160a01b038a166000908152600c9091529290922090516119889290611de2565b506040516001600160a01b0387169033907fd27844529172fdca792b44a017cd8666c4ba21b6b0352d084c8aa23d3fc01fac90600090a350600195945050505050565b3360009081526001602052604081205460ff166119e757600080fd5b506001600160a01b03166000908152600b6020908152604091829020825191820190925290549081905290565b336000908152600160205260409020546060908190819060ff16611a3757600080fd5b6001600160a01b038416600090815260056020526040808220815160608101909252805482908290611a6890612492565b80601f0160208091040260200160405190810160405280929190818152602001828054611a9490612492565b8015611ae15780601f10611ab657610100808354040283529160200191611ae1565b820191906000526020600020905b815481529060010190602001808311611ac457829003601f168201915b50505050508152602001600182018054611afa90612492565b80601f0160208091040260200160405190810160405280929190818152602001828054611b2690612492565b8015611b735780601f10611b4857610100808354040283529160200191611b73565b820191906000526020600020905b815481529060010190602001808311611b5657829003601f168201915b50505050508152602001600282018054611b8c90612492565b80601f0160208091040260200160405190810160405280929190818152602001828054611bb890612492565b8015611c055780601f10611bda57610100808354040283529160200191611c05565b820191906000526020600020905b815481529060010190602001808311611be857829003601f168201915b5050509190925250508151602083015160409093015190989297509550909350505050565b6000546001600160a01b03163314611c4157600080fd5b6001600160a01b038116611c5457600080fd5b600080546040516001600160a01b03808516939216917f8be0079c531659141344cd1fd0a4f28419497f9722a3daafe3b4186f6b6457e091a3600080546001600160a01b0319166001600160a01b0392909216919091179055565b3360009081526001602052604081205460ff16611ccb57600080fd5b8551611cde90600d906020890190611de2565b508451611cf290600e906020880190611de2565b50600f805460ff19168415151790558151611d14906010906020850190611de2565b506001600160a01b0387166000908152600360205260409020600d805490919081908390611d4190612492565b611d4c929190611e66565b506001820181600101908054611d6190612492565b611d6c929190611e66565b50600282810154908201805460ff191660ff90921615159190911790556003808301805491830191611d9d90612492565b611da8929190611e66565b5050506001600160a01b03871660009081526004602090815260409091208551611dd492870190611de2565b506001979650505050505050565b828054611dee90612492565b90600052602060002090601f016020900481019282611e105760008555611e56565b82601f10611e2957805160ff1916838001178555611e56565b82800160010185558215611e56579182015b82811115611e56578251825591602001919060010190611e3b565b50611e62929150611ee1565b5090565b828054611e7290612492565b90600052602060002090601f016020900481019282611e945760008555611e56565b82601f10611ea55780548555611e56565b82800160010185558215611e5657600052602060002091601f016020900482015b82811115611e56578254825591600101919060010190611ec6565b5b80821115611e625760008155600101611ee2565b80356001600160a01b03811681146106c757600080fd5b600060208284031215611f1f57600080fd5b611f2882611ef6565b9392505050565b6000815180845260005b81811015611f5557602081850181015186830182015201611f39565b81811115611f67576000602083870101525b50601f01601f19169290920160200192915050565b60e081526000611f8f60e083018a611f2f565b8281036020840152611fa1818a611f2f565b90508281036040840152611fb58189611f2f565b9150508560608301528460808301528360a08301528260c083015298975050505050505050565b634e487b7160e01b600052604160045260246000fd5b600082601f83011261200357600080fd5b813567ffffffffffffffff8082111561201e5761201e611fdc565b604051601f8301601f19908116603f0116810190828211818310171561204657612046611fdc565b8160405283815286602085880101111561205f57600080fd5b836020870160208301376000602085830101528094505050505092915050565b600080600080600060a0868803121561209757600080fd5b6120a086611ef6565b9450602086013567ffffffffffffffff8111156120bc57600080fd5b6120c888828901611ff2565b959895975050505060408401359360608101359360809091013592509050565b602081526000611f286020830184611f2f565b600080600080600080600060e0888a03121561211657600080fd5b61211f88611ef6565b9960208901359950604089013598606081013598506080810135975060a0810135965060c00135945092505050565b6080815260006121616080830187611f2f565b6020830195909552506040810192909252606090910152919050565b60a08152600061219060a0830188611f2f565b82810360208401526121a28188611f2f565b905082810360408401526121b68187611f2f565b9050841515606084015282810360808401526121d28185611f2f565b98975050505050505050565b600080600080600080600080610100898b0312156121fb57600080fd5b61220489611ef6565b9750602089013567ffffffffffffffff8082111561222157600080fd5b61222d8c838d01611ff2565b985060408b013591508082111561224357600080fd5b61224f8c838d01611ff2565b975060608b013591508082111561226557600080fd5b506122728b828c01611ff2565b989b979a50959860808101359760a0820135975060c0820135965060e090910135945092505050565b6060815260006122ae6060830186611f2f565b60208301949094525060400152919050565b600080604083850312156122d357600080fd5b6122dc83611ef6565b946020939093013593505050565b6000806000606084860312156122ff57600080fd5b833567ffffffffffffffff8082111561231757600080fd5b61232387838801611ff2565b9450602086013591508082111561233957600080fd5b61234587838801611ff2565b9350604086013591508082111561235b57600080fd5b5061236886828701611ff2565b9150509250925092565b6060815260006123856060830186611f2f565b82810360208401526123978186611f2f565b905082810360408401526123ab8185611f2f565b9695505050505050565b803580151581146106c757600080fd5b60008060008060008060c087890312156123de57600080fd5b6123e787611ef6565b9550602087013567ffffffffffffffff8082111561240457600080fd5b6124108a838b01611ff2565b9650604089013591508082111561242657600080fd5b6124328a838b01611ff2565b9550606089013591508082111561244857600080fd5b6124548a838b01611ff2565b945061246260808a016123b5565b935060a089013591508082111561247857600080fd5b5061248589828a01611ff2565b9150509295509295509295565b600181811c908216806124a657607f821691505b6020821081036124c657634e487b7160e01b600052602260045260246000fd5b5091905056fea26469706673582212203caf85d641d38685dd83c5af71dffa1d3e9da2ae95b0fb38d515581ebd9c687e64736f6c634300080d0033",
    "sourcePath": "/home/madhav/Documents/research project/3DPrinting-Supply-Chain/contracts/SupplyChainStorage.sol",
    "compiler": {
        "name": "solc",
        "version": "0.8.13+commit.abaa5c0e"
    },
    "functionHashes": {
        "authorizeCaller(address)": "2c388d5d",
        "deAuthorizeCaller(address)": "1bcd250a",
        "get3DPrintingCompanyData(address)": "2570da1c",
        "getBasicDetails(address)": "f2997d76",
        "getChemicalProcessorData(address)": "4f3f3084",
        "getFilamentProducerData(address)": "05ed3c4e",
        "getLastHandledBatch()": "4f7bbb9e",
        "getNextAction(address)": "4d6b5e00",
        "getPolymerizationCompanyData(address)": "ad0e5256",
        "getRawMaterialExtractorData(address)": "a7b2f57e",
        "getRecycleCompanyData(address)": "d97a81d9",
        "getUser(address)": "6f77926b",
        "getUserRole(address)": "27820851",
        "owner()": "8da5cb5b",
        "renounceOwnership()": "715018a6",
        "set3DPrintingCompanyData(address,uint256,uint256,uint256,uint256,uint256,uint256)": "2bf7a7a9",
        "setBasicDetails(string,string,string)": "cc117f78",
        "setChemicalProcessorData(address,string,uint256,uint256,uint256)": "1e631fb4",
        "setFilamentProducerData(address,string,string,string,uint256,uint256,uint256,uint256)": "b67a96ce",
        "setPolymerizationCompanyData(address,string,string,string,uint256,uint256,uint256,uint256)": "91a1288e",
        "setRawMaterialExtractorData(address,string,uint256,uint256,uint256)": "d1720c51",
        "setRecycleCompanyData(address,uint256)": "c0eefecb",
        "setUser(address,string,string,string,bool,string)": "fb7a20af",
        "transferOwnership(address)": "f2fde38b"
    },
    "gasEstimates": {
        "creation": {
            "codeDepositCost": "1894800",
            "executionCost": "51599",
            "totalCost": "1946399"
        },
        "external": {
            "authorizeCaller(address)": "infinite",
            "deAuthorizeCaller(address)": "infinite",
            "get3DPrintingCompanyData(address)": "15702",
            "getBasicDetails(address)": "infinite",
            "getChemicalProcessorData(address)": "infinite",
            "getFilamentProducerData(address)": "infinite",
            "getLastHandledBatch()": "2477",
            "getNextAction(address)": "infinite",
            "getPolymerizationCompanyData(address)": "infinite",
            "getRawMaterialExtractorData(address)": "infinite",
            "getRecycleCompanyData(address)": "4862",
            "getUser(address)": "infinite",
            "getUserRole(address)": "infinite",
            "owner()": "2360",
            "renounceOwnership()": "29917",
            "set3DPrintingCompanyData(address,uint256,uint256,uint256,uint256,uint256,uint256)": "infinite",
            "setBasicDetails(string,string,string)": "infinite",
            "setChemicalProcessorData(address,string,uint256,uint256,uint256)": "infinite",
            "setFilamentProducerData(address,string,string,string,uint256,uint256,uint256,uint256)": "infinite",
            "setPolymerizationCompanyData(address,string,string,string,uint256,uint256,uint256,uint256)": "infinite",
            "setRawMaterialExtractorData(address,string,uint256,uint256,uint256)": "infinite",
            "setRecycleCompanyData(address,uint256)": "infinite",
            "setUser(address,string,string,string,bool,string)": "infinite",
            "transferOwnership(address)": "30510"
        }
    }
}